:1000000053C000006EC000006CC000006AC0000059
:1000100068C0000066C0000064C0000062C000004C
:1000200060C000005EC000005CC000005AC000005C
:1000300058C00000B4C1000054C0000052C000000D
:1000400050C000004EC000004CC000004AC000007C
:1000500048C0000046C0000044C0000042C000008C
:1000600040C000003EC000003CC000003AC000009C
:1000700038C0000036C0000034C0000032C00000AC
:1000800030C000002EC000002CC00000BB04D30410
:10009000D704DB0414054C054F056D057205960564
:1000A000B505D805E305FB0511241FBECFEFD0E44D
:1000B000DEBFCDBF11E0A0E0B1E0E8E2FDE000E08E
:1000C0000BBF02C007900D92A238B107D9F721E00B
:1000D000A2E8B1E001C01D92A439B207E1F7A7D5AB
:1000E00021C68ECFCF93DF93CDB7DEB781E01AD094
:1000F0000000DF91CF910895CF93DF93CDB7DEB7A6
:1001000084E690E0ACD088E30DD086E00BD08FE0A1
:1001100009D081E007D08AE090E0A1D00000DF9113
:10012000CF910895CF93DF931F92CDB7DEB7898328
:1001300082E290E022E230E0F90120812E7FFC0192
:1001400020838BE290E02981FC01208382E290E011
:1001500022E230E0F90120812260FC0120830000CE
:1001600082E290E022E230E0F90120812D7FFC0163
:10017000208382E090E073D000000F90DF91CF9158
:100180000895CF93DF931F92CDB7DEB7898382E2C4
:1001900090E022E230E0F90120812160FC0120831F
:1001A0008BE290E02981FC01208382E290E022E250
:1001B00030E0F90120812260FC012083000082E20E
:1001C00090E022E230E0F90120812D7FFC012083C4
:1001D00081E090E044D000000F90DF91CF9108952E
:1001E000CF93DF9300D000D0CDB7DEB78A837C8376
:1001F0006B8378DF8A8189830FC0898191E0980FB2
:10020000998318D08B819C819C012F5F3F4F3C8349
:100210002B83FC018081B5DF8B819C81FC01808177
:10022000882359F700000F900F900F900F90DF91E7
:10023000CF910895CF93DF931F92CDB7DEB7898317
:100240008981813120F4898181586CDF03C08981E3
:10025000815568DF00000F90DF91CF910895CF9313
:10026000DF9300D000D000D0CDB7DEB79E838D8362
:100270001A82198213C01C821B8206C000008B8167
:100280009C8101969C838B838B819C8187309340DA
:10029000ACF389819A8101969A83898329813A8175
:1002A0008D819E812817390734F3000026960FB6FA
:1002B000F894DEBF0FBECDBFDF91CF910895CF93ED
:1002C000DF9300D000D0CDB7DEB769837A838B830C
:1002D0009C8389819A81AB81BC818093000190933A
:1002E0000101A0930201B09303018091000190915C
:1002F0000101A0910201B0910301809383019093C9
:100300008401A0938501B093860100000F900F90A7
:100310000F900F90DF91CF910895CF93DF93CDB7DA
:10032000DEB781E890E02BE0FC01208388E890E0D4
:100330002DE730E0FC01318320838FE690E022E05E
:10034000FC01208384E890E0FC01118210828091FE
:10035000000190910101A0910201B09103018093ED
:10036000830190938401A0938501B09386018FE56A
:1003700090E02FE530E0F90120812068FC01208326
:100380000000DF91CF910895CF93DF93CDB7DEB713
:1003900081E0809382010000DF91CF9108951F9248
:1003A0000F9200905F000F92112400905B000F925B
:1003B0002F933F934F935F936F937F938F939F936D
:1003C000AF93BF93EF93FF93CF93DF93CDB7DEB798
:1003D0008091830190918401A0918501B091860163
:1003E0000197A109B1098093830190938401A0939F
:1003F0008501B09386018091830190918401A09141
:100400008501B0918601892B8A2B8B2B89F4BCDF67
:100410008091000190910101A0910201B09103012E
:100420008093830190938401A0938501B09386010A
:100430000000DF91CF91FF91EF91BF91AF919F911C
:100440008F917F916F915F914F913F912F910F907D
:1004500000925B000F9000925F000F901F90189524
:10046000CF93DF931F92CDB7DEB710928801109221
:10047000890180E290E0FC01808180958470809306
:100480008B0180E290E0FC018081809588708093F0
:100490008C0180E290E0FC018081809580718093E6
:1004A0008D0180E290E0FC018081809580728093D4
:1004B0008E0180E290E0FC018081809580748093C1
:1004C0008F0180919201882F90E08130910509F48D
:1004D00047C0823091051CF4892B49F07BC08230E3
:1004E000910509F441C0039709F469C073C0809174
:1004F0008F01882319F01092920170C080918B01B6
:10050000882341F080918A01882321F481E080933F
:10051000920125C080918C01882391F080918A01FD
:10052000882371F482E080939201DCDD81E082DE39
:100530008091070190910801BC0181E051DE0FC05C
:1005400080918D01882341F080918A01882321F4D4
:1005500083E08093920103C0109292013FC03EC09D
:1005600084E0809392013AC080918F01882319F032
:100570001092920132C080918B01882351F08091BA
:100580000401823030F4809104018F5F8093040174
:1005900015C080918C01882351F080910401823034
:1005A00030F08091040181508093040107C0809154
:1005B0008D01882391F0109292010FC00EC080919E
:1005C0008F01882319F01092920108C083E0809374
:1005D000920104C01092920101C00000809192012A
:1005E000882F90E081309105F1F0823091051CF464
:1005F000892B39F03DC08230910529F1039759F1DB
:1006000037C06CE271E080E090E059DE6BDD81E0A4
:1006100011DE8091050190910601BC0181E0E0DDD1
:1006200080E0AFDD25C080910401813021F481E0BC
:10063000809388011CC0809104018230C1F481E064
:100640008093890114C04EDD81E0F4DD80910401C6
:10065000805D97DD0DC046DD81E0ECDD8EE290E04F
:100660004BD3898380919301805D8BDD01C00000B5
:1006700000000F90DF91CF910895CF93DF93CDB716
:10068000DEB780E290E0FC018081809584708093E9
:100690008B0180E290E0FC018081809588708093DE
:1006A0008C0180E290E0FC018081809580718093D4
:1006B0008D0180E290E0FC018081809580728093C2
:1006C0008E0180E290E0FC018081809580748093AF
:1006D0008F0180919101882F90E08230910559F12E
:1006E000833091052CF4009759F0019701F164C013
:1006F0008330910509F457C0049709F457C05CC0D2
:1007000010928A0180918801882319F41092910136
:1007100050C080918801882309F44BC01092870152
:1007200081E08093910181E080938A0142C082E060
:100730008093910141C080918B01882399F0809131
:1007400087018F5F8093870190918701809193014A
:10075000981720F0809187018093930184E0809323
:10076000910129C080918C01882341F480918D01F1
:10077000882321F480918E01882371F09091870164
:1007800080919301981720F08091870180939301C5
:1007900083E0809391010FC080918F01882359F0ED
:1007A0001092910108C01092910106C0109291011F
:1007B00003C0000001C0000080919101882F90E0EB
:1007C0008230910509F43EC0833091052CF40097E6
:1007D00059F0019799F089C08330910509F455C00B
:1007E000049709F46AC081C068EE73E080E090E08D
:1007F00066DD1092880110928A0177C060ED77E083
:1008000080E090E05CDD84E290E02FEFFC0120834B
:1008100085E290E02FE0FC01208387E290E02FEF5B
:10082000FC01208388E290E02FE0FC0120835ADC69
:1008300081E000DD8091070190910801BC0181E019
:10084000CFDC53C068EE73E080E090E038DD84E2F6
:1008500090E02FEFFC01208385E290E02FEFFC0178
:10086000208387E290E02FEFFC01208388E290E074
:10087000FC01108237DC81E0DDDC80910D0190917C
:100880000E01BC0181E0ACDC30C080919301682F87
:100890008EE290E039D268EE73E080E090E00FDD08
:1008A00021DC81E0C7DC80910B0190910C01BC013F
:1008B00081E096DC80E065DC18C080919301682FB0
:1008C0008EE290E021D268EE73E080E090E0F7DC09
:1008D00009DC81E0AFDC8091090190910A01BC0143
:1008E00081E07EDC80E04DDC00000000DF91CF91F4
:1008F0000895CF93DF93CDB7DEB780E290E0FC019F
:1009000080818095847080938B0180E290E0FC016F
:1009100080818095887080938C0180E290E0FC015A
:1009200080818095807180938D0180E290E0FC0150
:1009300080818095807280938E0180E290E0FC013E
:1009400080818095807480938F0180919001882FA1
:1009500090E0092E000CAA0BBB0B40E050E026E013
:1009600030E0841B950B2817390708F4A0C08A5B78
:100970009F4FFC01B8C181E080938A018091890179
:10098000882319F4109290018DC0809189018823E9
:1009900009F488C01092870181E08093900181E082
:1009A00080938A017FC082E08093900180C083E0C1
:1009B000809390017CC080918B01882399F0809175
:1009C00087018F5F809387019091870180919301C8
:1009D000981720F0809187018093930184E08093A1
:1009E000900162C080918C01882341F480918D0137
:1009F000882321F480918E01882371F090918701E2
:100A000080919301981720F0809187018093930142
:100A100085E08093900148C080918F01882309F47C
:100A200043C01092900140C080918E01882399F0BC
:100A3000809187018F5F80938701909187018091DA
:100A40009301981720F0809187018093930186E0AD
:100A5000809390012BC080918C01882341F4809178
:100A60008D01882321F480918B01882371F090916E
:100A7000870180919301981720F0809187018093DE
:100A8000930185E08093900111C080918F018823AC
:100A900069F0109290010AC01092900108C0109263
:100AA000900105C0000003C0000001C0000080915B
:100AB0009001882F90E0092E000CAA0BBB0B40E0A0
:100AC00050E026E030E0841B950B2817390708F426
:100AD000AAC0835B9F4FFC0106C11092890110924E
:100AE0008A01A1C06CED75E080E090E0E8DB84E273
:100AF00090E02FEFFC01208385E290E02FE0FC01E5
:100B0000208387E290E02FEFFC01208388E290E0D1
:100B10002FE0FC012083E6DA81E08CDB8091070185
:100B200090910801BC0181E05BDB7DC084E290E034
:100B30002FE0FC01208385E290E020EFFC01208380
:100B400087E290E02FEFFC01208388E290E020EF25
:100B5000FC012083C7DA81E06DDB80910701909171
:100B60000801BC0181E03CDB5EC068EE73E080E020
:100B700090E0A5DB84E290E02FEFFC01208385E28A
:100B800090E02FEFFC01208387E290E02FEFFC0143
:100B9000208388E290E0FC011082A4DA81E04ADB45
:100BA00080910D0190910E01BC0181E019DB3BC0E9
:100BB00099DA81E03FDB80910F0190911001BC0137
:100BC00081E00EDB30C068EE73E080E090E077DB20
:100BD00080919301682F8EE290E096D083DA81E0D5
:100BE00029DB80910B0190910C01BC0181E0F8DAC6
:100BF00080E0C7DA18C068EE73E080E090E05FDB69
:100C000080919301682F8EE290E07ED06BDA81E0D4
:100C100011DB8091090190910A01BC0181E0E0DAC9
:100C200080E0AFDA00000000DF91CF910895CF930C
:100C3000DF931F92CDB7DEB781E290E023E0FC01A5
:100C4000208382E290E02CEFFC0120838AE290E096
:100C50002FEFFC0120838BE290E0FC01108284E204
:100C600090E02FEFFC01208385E290E02FEFFC0164
:100C7000208387E290E02FEFFC01208388E290E060
:100C8000FC01108280E44EDA19820BC08981882F22
:100C900090E08F5E9E4FFC01808173DA89818F5FC7
:100CA00089838981883090F380E83CDA60E08EE2C5
:100CB00090E02AD064EF71E080E090E000DB2DDB73
:100CC000109292011092910117DA0CDA81E0B2DAF7
:100CD000C7DBD3DC0EDE0000809182018823E1F3C4
:100CE00010928201F5CFEE0FFF1F0024001C0BBEF7
:100CF0000790F691E02D0994F999FECF92BD81BD40
:100D0000F89A992780B50895262FF999FECF1FBA32
:100D100092BD81BD20BD0FB6F894FA9AF99A0FBE24
:080D200001960895F894FFCF3D
:100D280001000000011901390145015F01700170DE
:100D3800010E0E0E0415040A0A312E5374617274E2
:100D480020322E43686F6F7365332E53636F72655D
:100D58007320204C6576656C00426567696E204794
:100D6800616D652100596F752057696E212020201B
:100D78002020202020436F6E677261747321005316
:100D88006F7272792C20496E636F7272656374009A
:100D9800456E746572204B657920507265737320B7
:020DA800000049
:00000001FF
